:020000004A2A8A
:10000800DF00030E8301B5000A08B4008A01500816
:10001800A3005108A2005208A1005D08A0000B1D12
:1000280016280B1183120C1CB0280C108B280530D5
:10003800B8000530B9000B215008B3000530B800EE
:100048000530B9000B210530B8000530B900CC30B7
:10005800BA00B5210530B8000530B9004430BA00FF
:10006800B5210130A500B0280530B8000530B90029
:100078000B210530B8000530B900CC30BA00B521E5
:100088000530B8000530B900BE30BA00B5210230DD
:10009800A500B0280330A5000512B0280430A5003B
:1000A800B0280530A500B0280630A500B0280730D4
:1000B800A500B0280530B8000530B900EA2150087D
:1000C800B2000530B8000530B900EA215008A60092
:1000D8003208D200D20CD213D20CD213D20CD213C3
:1000E800D20CD2135208B2005008A600A60D261052
:1000F800A60D2610A60D2610A60D26105208A60736
:100108000830A500B0283321A501B028B02825085B
:10011800003A03191B282508013A0319382825082D
:10012800023A03194E282508033A031952282508CC
:10013800043A031955282508053A031958282508AB
:10014800063A03195B282508073A03195E2825088B
:10015800083A031987288A282308D0002208D100E2
:100168002108D2002008DD0034088A00350E8300FB
:06017800DF0E5F0E09001E
:10017E00A5308312DD00DD0BC22800000000080050
:04018E000000080065
:0E01920010308312DD00DD0BCC2800000800C9
:1001A00019308312DD00DD0BD328000000000800A9
:0C01B00083122E088A002D08820008002F
:1001BC008312370883169B009C131C141A08D0005A
:0201CC00080029
:1001CE008312B701DE205008AC000130B700DE20EC
:1001DE005008B0000230B700DE205008AF000330E8
:1001EE00B700DE205008AB000430B700DE20500808
:1001FE00A9000530B700DE205008A8000630B70071
:08020E00DE205008AA000800E0
:1002160083123908D1000130D0005108031917297B
:10022600D00D5010FF3E11295008BB00D0093808E8
:10023600840050088005841750088005BF203B08BD
:1002460080048413D0203B080005BA003A08003A1F
:10025600013003190030BA00BF203A08D000080068
:1002660083122C082602031C95292C082602031C3F
:100276005B293008260203185B2924082806031D7B
:10028600582902303002D100D201031CD20380303B
:10029600D000803052065002031D53295108260211
:1002A600031857292908A4005A292908A4008929CE
:1002B60030082602031C7E292F08260203187E29F1
:1002C60024082A06031D7B2902302F02D100D20101
:1002D600031CD2038030D000803052065002031D2A
:1002E60076295108260203187A292808A4007D29B0
:1002F6002808A40089292F082602031C89292A0810
:10030600A40026082B020318892905163108003A8D
:10031600031D92292D30A7000130B100942924082D
:10032600A700A82902302C02D100D201031CD20357
:100336008030D000803052065002031DA429510897
:0C03460026020318A829A701B101080035
:10035200D8208A110A128000840AAD0A0319AE0A53
:08036200D003031DA9290800C6
:10036A0083123908D1000130D00051080319C1297C
:10037A00D00D5010FF3EBB295008BD00D0095008CF
:10038A00BC0038088400500880058417BB013B086C
:10039A00073C031CE6293B08D0003A08D100500864
:1003AA000319DB29D10CD113FF3ED5293C0880055E
:1003BA00511CE1293D088004D0203D088004BB0A75
:0A03CA00CC298413C920C9200800C3
:1003D40083123908D1000130D00051080319F629DD
:1003E400D00D5010FF3EF0295008BD005009BC004C
:1003F40038088400BB01BA013A08073C031C222ACE
:100404003C08800584173C088005C7203D0880040B
:10041400C72084133D080005D00003191E2A3A089A
:10042400D1000130D000510803191C2AD00D5010FE
:10043400FF3E162A5008BB04C920C920BA0AFE2967
:060444003B08D000080097
:10044A00352A8312D1013E2A0130D1003E2A5208B0
:10045A003602031C332A0130D100342AD1013E2A44
:10046A003608003A0319262A3608323A0319292A85
:10047A002C2A520AD0005008D2005208323A031DE0
:0A048A00472AD2015108D0000800F3
:100494008312A401A501A601A7012B3083168500B0
:1004A40007308312990085018030831681009501FD
:1004B4000730831299009F0183169F01C0308B007F
:1004C40001308C009601113083129000E7208312D2
:1004D40005150330DB008A30DC005530DD00DD0B10
:1004E400712ADC0B712ADB0B712A0000000033082F
:1004F400013A031D7F2A3130A7002708B6002522C0
:1005040083125018872A0511882A0515792A892A01
:02400E009431EB
:020000040000FA
:104200001E002D003C004B000A0019003000FF008A
:10421000FF00FF00FF00FF00FF00FF00FF00FF00A6
:10422000FF00FF00FF00FF00FF00FF00FF00FF0096
:10423000FF00FF00FF00FF00FF00FF00FF00FF0086
:10424000FF00FF00FF00FF00FF00FF00FF00FF0076
:10425000FF00FF00FF00FF00FF00FF00FF00FF0066
:10426000FF00FF00FF00FF00FF00FF00FF00FF0056
:10427000FF00FF00FF00FF00FF00FF00FF00FF0046
:10428000FF00FF00FF00FF00FF00FF00FF00FF0036
:10429000FF00FF00FF00FF00FF00FF00FF00FF0026
:1042A000FF00FF00FF00FF00FF00FF00FF00FF0016
:1042B000FF00FF00FF00FF00FF00FF00FF00FF0006
:1042C000FF00FF00FF00FF00FF00FF00FF00FF00F6
:1042D000FF00FF00FF00FF00FF00FF00FF00FF00E6
:1042E000FF00FF00FF00FF00FF00FF00FF00FF00D6
:1042F000FF00FF00FF00FF00FF00FF00FF00FF00C6
:00000001FF

